:100000000C9434000C9451000C9451000C94510049
:100010000C9451000C9451000C9451000C9451001C
:100020000C9451000C9451000C9451000C9451000C
:100030000C9451000C9451000C9451000C945100FC
:100040000C9451000C9451000C9451000C945100EC
:100050000C9451000C9451000C9451000C945100DC
:100060000C9468010C94510011241FBECFEFD8E00E
:10007000DEBFCDBF11E0A0E0B1E0EAECF5E002C0E8
:1000800005900D92A832B107D9F714E0A8E2B1E0CB
:1000900001C01D92A837B107E1F70E9478000C94C7
:1000A000E3020C9400001092760410922B0412C00C
:1000B000E0917604F0E0280F391FD9012C91E55D1D
:1000C000FD4F2083209176042F5F209376044F5FAD
:1000D00040932B0440912B04242F30E02617370740
:1000E0003CF308958BE292E061E00E942B010895B9
:1000F0001092760480E001C08F5F8034E8F3809333
:10010000740414B88FEF87B91AB88BB985B988E22F
:100110008093290278940E949A00809129020E947B
:10012000AD0083E590E00E94460182E790E00E94E6
:100130004B01FFCF10922801449A459AE9EBF0E079
:1001400080818E7F808380818D7F808381E1809319
:10015000B80085E48093BC000895880F8093BA00AE
:100160000895982F413510F040E030C0809128016B
:100170008823E1F781E0809328018FEF80932302A9
:1001800010927E01415040937F014F5F990F916023
:100190009093290185EE8093BC00809128018130E5
:1001A000E1F380917E01841710F440917E0120E0FC
:1001B00030E00AC0FB01E20FF31FD901A25DBE4F80
:1001C0008C9180832F5F3F4F2417A0F3842F0895D5
:1001D0001F93582F122F413510F081E03AC08091C3
:1001E00028018823E1F782E0809328018FEF809334
:1001F000230210927E0140937F01AEE2B1E0FB0149
:1002000002C081918D938E2F861B8417D0F3852F8A
:1002100090E0880F991F8093290185EE8093BC00A0
:10022000112321F0809128018230E1F38091230293
:100230008F3F11F480E00DC080912302803211F4D1
:1002400082E007C080912302803311F084E001C076
:1002500083E01F910895482F613510F081E00895E3
:1002600080912801843011F082E008956093D101DB
:10027000A0E8B1E0842F9C01F90102C081918D9327
:100280008E2F841B8617D0F380E0089590932D0164
:1002900080932C01089590932B0180932A01089557
:1002A000882311F085EC01C085E88093BC00089597
:1002B00085ED8093BC008091BC0084FDFCCF109242
:1002C0002801089585EC8093BC00109228010895C0
:1002D0001F920F920FB60F9211242F933F934F93BB
:1002E0005F936F937F938F939F93AF93BF93EF939E
:1002F000FF938091B90090E0887F907080369105DF
:1003000009F4DCC081369105CCF58832910509F4F9
:100310007BC089329105B4F48031910509F46FC036
:10032000813191053CF4009709F431C1089709F037
:1003300039C165C08831910509F466C0809709F01C
:1003400031C17DC08034910509F49FC0813491058D
:1003500044F48033910509F47DC0C89709F022C1A7
:1003600084C08035910509F484C08835910509F46D
:1003700091C08834910509F015C198C0883991055C
:1003800009F4FDC089399105ECF48837910509F429
:1003900095C0893791054CF48836910509F48EC0D3
:1003A0008037910509F0FEC089C08838910509F4AD
:1003B000E6C08039910509F487C08038910509F0BD
:1003C000F1C082C0803B910509F4B0C0813B91052A
:1003D0004CF4803A910509F489C0883A910509F0F6
:1003E000E1C0A4C0803C910509F4CDC0883C9105D2
:1003F00009F4C9C0883B910509F0D4C0ACC0809114
:1004000029018093BB00B9C090917E0180917F014A
:10041000981768F490917E01E92FF0E0E25DFE4FBD
:1004200080818093BB009F5F90937E01A6C085ED85
:100430008093BC008091BC0084FDFCCFB1C080E201
:100440008093230285ED8093BC008091BC0084FDE5
:10045000FCCFA6C080E38093230285ED8093BC008F
:100460008091BC0084FDFCCF9BC088E38093230275
:100470008AC080917E019091BB00E82FF0E0E25DA0
:10048000FE4F90838F5F80937E0190917E018091DB
:100490007F0171C080917E019091BB00E82FF0E058
:1004A000E25DFE4F90838F5F80937E0185ED8093A8
:1004B000BC008091BC0084FDFCCF72C083E08093BF
:1004C00028011092220259C080912202803508F042
:1004D00056C0809122029091BB00E82FF0E0EE52CE
:1004E000FE4F90838F5F8093220247C0809122024B
:1004F000803530F4E0912202F0E0EE52FE4F10829F
:1005000085ED8093BC008091BC0084FDFCCF1092EF
:10051000280160912202E0912C01F0912D0182EDE1
:1005200091E070E00995109222022DC084E0809342
:1005300028011092D0011092D101E0912A01F0918E
:100540002B0109958091D101882329F481E08093C2
:10055000D101109280019091D001E92FF0E0E05894
:10056000FE4F80818093BB009F5F9093D00190915C
:10057000D0018091D101981710F485EC01C085E875
:100580008093BC000FC085EC8093BC0009C0109222
:10059000230285ED8093BC008091BC0084FDFCCFDC
:1005A00010922801FF91EF91BF91AF919F918F9190
:1005B0007F916F915F914F913F912F910F900FBE5F
:0A05C0000F901F901895F894FFCFDC
:1005CA000001FF00FF000001010000FF00FF010021
:1005DA000001020304050607080A0C0F12161B2065
:0805EA000101010302041111DB
:00000001FF
