:100000000C9456000C9473000C9473000C947300C1
:100010000C9473000C9473000C9473000C94730094
:100020000C9473000C9473000C9473000C94730084
:100030000C9473000C9473000C9473000C94730074
:100040000C9473000C9473000C9473000C94730064
:100050000C9473000C9473000C9473000C94730054
:100060000C9473000C9473000C9473000C94730044
:100070000C9473000C9473000C9473000C94730034
:100080000C9473000C9473000C9473000C94730024
:100090000C9473000C9473000C9473000C94730014
:1000A0000C9473000C9473000C94730011241FBE05
:1000B000CFEFDAE0DEBFCDBF15E0A0E0B1E0ECE6C7
:1000C000F5E002C005900D92AA34B107D9F717E008
:1000D000AAE4B5E001C01D92AA34B107E1F70E947D
:1000E0002D010C94B4020C9400002D982F988EBD15
:1000F0000DB407FEFDCF2D9A08952D982F9A8EBD31
:100100000DB407FEFDCF2D9A0895CF93DF93CAE477
:10011000D5E089910E947D0085E1CA34D807C9F7EE
:10012000DF91CF910895982F4F70772767FD7095D5
:1001300086E0660F771F8A95E1F7892F97FD8F5F1D
:100140008595E82FFF27E7FDF095E60FF71FE65BA3
:10015000FA4F90FD05C08081807F842B80830895B5
:1001600080818F704295407F482B40830895A0E0A6
:10017000B0E0EDEBF0E00C948202782EA62E49015F
:10018000EA0193E0CC0FDD1F9A95E1F7C41BD50B74
:10019000C553DE4FEE24FF2422C0C601002E02C04C
:1001A000959587950A94E2F781709070889DA001DB
:1001B000899D500D989D500D1124872D800F6B2D1A
:1001C0000E9493000F5F1F4F0630110531F708940E
:1001D000E11CF11C219686E0E816F10451F08881BB
:1001E000C82EDD24C7FCD09400E010E0BE2CBA0C71
:1001F000D4CFCDB7DEB7EDE00C949E02A0E0B0E026
:10020000E4E0F1E00C9487028C016B01EA017901D2
:100210001CC0552747FD5095C801B60197010E94A3
:10022000B7008991992787FD9095FC0123E0EE0F97
:10023000FF1F2A95E1F7E81BF90BE653FE4F80817B
:10024000992787FD9095080F191F4881442309F7C6
:10025000CDB7DEB7E8E00C94A3020F931F93CF93C2
:10026000DF938FEF84B98AB981E58CBD15B82C9ADC
:1002700080EA9FE00197F1F78EEA0E94750086E818
:100280000E94750084EA0E94750081E80E94750052
:100290008FE70E94750088EA0E9475008FE30E9434
:1002A00075008CEB0E94750080E10E9475008EEB5A
:1002B0000E9475008CE10E9475008DEA0E94750015
:1002C00082E00E94750080EA0E94750080E50E942D
:1002D000750081EA0E94750080E00E94750082EA44
:1002E0000E9475008CE40E94750081EB0E947500ED
:1002F00085E50E94750085E10E94750080E00E94FE
:1003000075008FE30E94750085E70E94750080E00C
:100310000E9475008FE30E947500C0E0D0E080E08D
:100320000E947D00219680E1C030D807C1F70AE421
:1003300015E0F801119287E0EA34F807D9F78FEA5F
:100340000E94750088EE93E020E931E0F9013197D1
:10035000F1F70197D9F780E090E061E070E040E0CC
:1003600051E02FEF30E00E94FE00CAE4D5E0899111
:1003700080950E947D00E7E0CA34DE07C1F7EAE419
:10038000F5E0119287E0EA34F807D9F780E090E0D1
:1003900061E070E04EE151E02FEF30E00E94FE009E
:1003A000CAE4D5E089910E947D00E7E0CA34DE0707
:1003B000C9F7EAE4F5E0119287E0EA34F807D9F7E3
:1003C00080E090E061E070E04BE351E02FEF30E03F
:1003D0000E94FE00CAE4D5E089910E947D00E7E01A
:1003E000CA34DE07C9F7EAE4F5E0119287E0EA349F
:1003F000F807D9F780E090E061E070E046E551E071
:100400002FEF30E00E94FE00CAE4D5E089910E94FF
:100410007D00E7E0CA34DE07C9F7EAE4F5E01192AF
:1004200087E0EA34F807D9F780E090E061E070E017
:100430004FE651E02FEF30E00E94FE00CAE4D5E025
:1004400089910E947D00E7E0CA34DE07C9F7EAE43B
:10045000F5E0119287E0EA34F807D9F780E090E000
:1004600061E070E045E851E02FEF30E00E94FE00CF
:10047000CAE4D5E089910E947D00E7E0CA34DE0736
:10048000C9F7EAE4F5E0119287E0EA34F807D9F712
:1004900080E090E061E070E040EA51E02FEF30E072
:1004A0000E94FE00CAE4D5E089910E947D00E7E049
:1004B000CA34DE07C9F7EAE4F5E0119287E0EA34CE
:1004C000F807D9F780E090E061E070E04CEB51E094
:1004D0002FEF30E00E94FE00CAE4D5E089910E942F
:1004E0007D00E7E0CA34DE07C9F7F80111928F01F9
:1004F000F7E00A341F07C9F7FFCF2F923F924F92C0
:100500005F926F927F928F929F92AF92BF92CF92A3
:10051000DF92EF92FF920F931F93CF93DF93CDB7AC
:10052000DEB7CA1BDB0B0FB6F894DEBF0FBECDBF24
:1005300009942A88398848885F846E847D848C84F5
:100540009B84AA84B984C884DF80EE80FD800C81FE
:100550001B81AA81B981CE0FD11D0FB6F894DEBFE1
:0C0560000FBECDBFED010895F894FFCF51
:10056C002F4453502F464545444241434B202020B5
:10057C00202020202020202032332E3435002F4103
:10058C004E414C4F472F46494C544552312F435501
:10059C00544F4646202020323030004142434445DF
:1005AC00464748494A4B4C4D4E4F50515253545567
:1005BC00565758595A00414C455048203132333423
:1005CC003536373839302E32303A30302D3200480B
:1005DC00454C4C4F2C20574F524C442E20524541E9
:1005EC004C4C593F00474154484552204C454152D0
:1005FC004E20464F4C4C4F572041545441434800D9
:10060C00583A2032302E33202020593A2031322EC5
:10061C00342020205A3A2032332E31005448415491
:10062C0020495320544841542E0000000000000083
:10063C0000000000000000000000000000000000AE
:10064C00000000000000000000000000000000009E
:10065C00000000000000000000000000000000008E
:10066C00000000000000000000000000000000007E
:10067C00000000000000000000000000000000006E
:10068C00000000000000000000000000000000005E
:10069C00000000000000000000000000000000004E
:1006AC00000000000000000000000000000000003E
:1006BC00000000000000000000000000000000002E
:1006CC00000000000000000000000000000000001E
:1006DC00000000000000000000000000000000000E
:1006EC0000000000000000000000000000000000FE
:1006FC0000000000000000000000000000000000EE
:10070C0000000000000000000000040000000000D9
:10071C0000020101000100000401010204040006B2
:10072C000A1F0A1F0A0004060302060300060B0B2D
:10073C00041A1A0005020502050B00020101000053
:10074C000000030201010102000301020202010088
:10075C00040502050000000400020702000002006C
:10076C00000000010104000007000000020000006E
:10077C000001000400040201000004070505050740
:10078C000004020302020700040304020107000430
:10079C000704060407000405050704040004070108
:1007AC0007040700040701070507000407040201FA
:1007BC0001000407050705070004070507040700E7
:1007CC00020001000100000200010001010004040C
:1007DC0002010204000400070007000004010204E7
:1007EC0002010005070806000200060E150D010E99
:1007FC00000506090F090900050709070907000587
:10080C000609010906000507090909070004070183
:10081C000301070004070103010100050E010D0986
:10082C0006000509090F0909000407020202070066
:10083C00040404040403000509050305090004016C
:10084C00010101070006111B1511110005090B0D03
:10085C000909000506090909060005070907010130
:10086C0000050609090D0E00050709070909000511
:10087C000E0106080700040702020202000509091E
:10088C0009090600061111110A04000611111515AB
:10089C000A000509090609090006110A04040400E6
:1008AC000407040201070003030101010300000017
:1008BC000000000000030302020203000402050012
:1008CC00000000040000000000070201020000000C
:1008DC00000000000000000000000000000000000C
:1008EC0000000000000000000000000000000000FC
:1008FC0000000000000000000000000000000000EC
:10090C0000000000000000000000000000000000DB
:10091C0000000000000000000000000000000000CB
:10092C0000000000000000000000000000000000BB
:10093C0000000000000000000000000000000000AB
:10094C00000000000000000000000000000000009B
:10095C00000000000000000000000000000000008B
:10096C00000000000000000000000000000000007B
:10097C00000000000000000000000000000000006B
:10098C000000000000000004060201020600020143
:10099C0001010101000403020402030005000A0521
:0A09AC000000000000000000000041
:00000001FF
